:020000040800F2
:10000000001000200912000895110008971100083F
:1000100000000000000000000000000000000000E0
:10002000000000000000000000000000991100081E
:1000300000000000000000009B1100089D11000856
:100040005912000800000000591200085912000857
:1000500059120008591200085912000859120008D4
:100060000000000059120008591200085912000837
:100070005912000859120008591200080000000027
:10008000591200080000000000000000591200088A
:100090000000000059120008591200085912000807
:1000A000000000005912000800000000591200086A
:1000B0000000000000000000000000000000000040
:1000C00010B5064C2378002B07D1054B002B02D02E
:1000D000044800E000BF0123237010BD040000208D
:1000E00000000000B8120008044B10B5002B03D02C
:1000F0000349044800E000BF10BDC04600000000F6
:1001000008000020B8120008002243088B4274D374
:1001100003098B425FD3030A8B4244D3030B8B4208
:1001200028D3030C8B420DD3FF22090212BA030C11
:100130008B4202D31212090265D0030B8B4219D3F2
:1001400000E0090AC30B8B4201D3CB03C01A524112
:10015000830B8B4201D38B03C01A5241430B8B425A
:1001600001D34B03C01A5241030B8B4201D30B0343
:10017000C01A5241C30A8B4201D3CB02C01A52416A
:10018000830A8B4201D38B02C01A5241430A8B422D
:1001900001D34B02C01A5241030A8B4201D30B0216
:1001A000C01A5241CDD2C3098B4201D3CB01C01A30
:1001B000524183098B4201D38B01C01A524143093A
:1001C0008B4201D34B01C01A524103098B4201D328
:1001D0000B01C01A5241C3088B4201D3CB00C01A95
:1001E000524183088B4201D38B00C01A524143080D
:1001F0008B4201D34B00C01A5241411A00D2014632
:10020000524110467047FFE701B5002000F006F8A4
:1002100002BDC0460029F7D076E770477047C04658
:1002200010B5040000F072FEFA218900FFF76CFFA0
:1002300000F0DEFA012000222100404200F0A8FA7E
:10024000002010BD1023064A10B5116800200B4392
:100250001360FFF7E5FF00F055FF002010BDC0461A
:1002600000200240024A1368013313607047C04601
:1002700020000020014B18687047C0462000002075
:1002800037B50190FFF7F6FF019C0500631C5A1E6D
:100290009341E418FFF7EEFF401BA042FAD337BDAD
:1002A0000321036870B59A6804000A40012A01D04E
:1002B000002070BD1968114202D1DA681204F7D526
:1002C00005229D681540012D1AD1022299680A4322
:1002D0009A6003221A60FFF7CDFF060023689B682F
:1002E0002B42E5D0FFF7C6FF801B0228F6D910236A
:1002F000626C012013436364A36C1D43A564D8E7BB
:1003000010230120626C13436364A36C0343A36452
:10031000CFE70000002373B50321019303680400B5
:100320009A680A40012A07D11968114201D00020B9
:1003300076BDDA681204FAD49968194A114208D0D5
:1003400010230120626C13436364A36C0343A36412
:10035000EEE7012299680A439A60124B1249186825
:10036000FFF7D2FE0190019B002B15D1FFF782FF12
:100370000125060023681B682B42D8D1FFF77AFFBE
:10038000801B0228F6D91023626C0120134363649A
:10039000A36C2B43A364CBE7019B013B0193E2E7F2
:1003A000170000800000002040420F000422036874
:1003B00070B599680400114201D1002070BD9968A0
:1003C000114206D09A68920703D4102299680A4312
:1003D0009A60FFF74FFF0425060023689B682B42B5
:1003E000EBD0FFF747FF801B0228F6D9102301202E
:1003F000626C13436364A36C0343A364DEE70000F1
:10040000F8B504000120002C72D0636C002B06D1DB
:1004100022004032A3642000137000F09BFE636C46
:10042000DB0600D579E0042223689868104000D0EC
:1004300073E0626C4249114002220A430321626464
:100440009A680A40012A00D06DE01968114202D171
:10045000DA68120467D5DA683A49256A0A40DA6030
:10046000A2696F039103E269D2031143626B013AFF
:10047000561EB2411603E268114322690F43022A55
:1004800000D10420226B616A52003A433243024396
:10049000012904D1002D2CD1802149020A43C22018
:1004A000A16AFF30814202D0E06A01430A43802002
:1004B000D96840051143D960A16B814202D0481E22
:1004C000062807D8072558692940A8435861586964
:1004D00001435961DB681C490B409A4211D100204D
:1004E0000322A064636C93431A00012313436364E3
:1004F000F8BD2020656C28436064A06C0143A164B2
:10050000CDE71222636C012093431A00102313439A
:100510006364A36C0343A364EAE71023626C0120C5
:1005200013436364E4E71821DA688A43A1680A4345
:10053000DA601969626889008908114319618AE7DC
:10054000FDFEFFFF1902FEFFE7FF3F83036870B562
:100550009B68040002205B071AD4250040352B78E5
:10056000012B15D001232B70E369012B11D1636C92
:100570000B4A00201A4080235B0013431C22636453
:100580002368A06428701A609968183A0A439A6030
:1005900070BD2000FFF7BEFE0028F9D1E7E7C04696
:1005A000FEF0FFFF70B506004036337804000220ED
:1005B000012B12D0012520003570FFF7F7FE00282F
:1005C00009D12000FFF76CFE002804D1636C034AB8
:1005D00013401D4365640023337070BDFEFEFFFFB2
:1005E000F8B5456904000E00082D0DD00368012000
:1005F000DB680C25034207D02023626C4034134390
:10060000636000232370F8BDFFF734FE0700236802
:100610001A682A4223D08022616C92000A436264E5
:10062000C022D9681201114212D1226A002A0FD1C8
:100630001A6812070CD59A68520723D40C215A68FD
:100640008A435A60626C1449114001220A43626471
:100650000020A2698242D6D10C221A60D3E7721C14
:10066000D6D0002E08D10423626C4034134363605B
:10067000002303202370C6E7FFF7FCFDC01B864262
:10068000C5D2F0E72022616C0A4362640122A16CAA
:100690000A43A264DCE7C046FEFEFFFF0368186C55
:1006A00070470000F7B5002304000193403423781D
:1006B00005000220012B2BD001232A68AE6B906825
:1006C0002370400752D42C484F680D6887423BD0B6
:1006D000AB4018008023976A5B05384390629E42C6
:1006E0000FD0013E062E0CD98B68072150690840B7
:1006F000834206D050690B408843506150690343E0
:1007000053612B00103B012B03D9002000232370E1
:10071000FEBD1A4B80221968102D13D0D2030A4354
:100720001A60102DF1D1164B16491868FFF7ECFC32
:100730000A2358430190019B002BE6D0019B013B0B
:100740000193F8E71204EAE7AB40916A99432B0062
:10075000103B9162012BD8D8084B1A68102D03D09A
:1007600009490A401A60D0E70849FAE72022696C73
:1007700018000A436A64C9E7011000000827014015
:100780000000002040420F00FFFFBFFFFFFF7FFF80
:1007900070B58901002814DA0F23C0B20340083B6A
:1007A000114A9B089B009B18032210409040FC328A
:1007B0001500114085408140DC69AC432143D9617B
:1007C00070BD032583082840A840FC352E00074A49
:1007D0009B009B18C02286402940814092009C5873
:1007E000B44321439950EBE700ED00E000E100E065
:1007F000094A431E012093420DD8C021074A0848E8
:100800005360036A09061B021B0A0B4303620020A4
:100810000723906013607047FFFFFF0010E000E0C7
:1008200000ED00E0054B1A68042802D1104318605F
:10083000704704218A431A60FAE7C04610E000E0DE
:10084000704710B5FFF7FCFF10BD0000F0B50B6856
:1008500087B0029300230191029ADA4001D107B0D8
:10086000F0BD01229A4003920399029A0A40009235
:1008700000D18CE0019A1021526816008E43022E9E
:100880000ED107251D40AD000139A940DC08A400A8
:100890000419276A8F4301990969A9400F43276208
:1008A00003245F00BC40E4430568013E2540AC469C
:1008B00003251540BD4061460D430560012E0FD84C
:1008C00001998668CD682640BD40354385604668FD
:1008D000039915098E4301210D409D403543456024
:1008E000C56801992C408D688021BD4049052C4385
:1008F000C4600A424BD00121264C0326A5691E4044
:100900000D43A561A4699D080C400594059C0F2426
:100910002149AD00B6006D18B4409021AF68C905FB
:10092000A743002488420CD01C490134884208D0D7
:100930001B490134884204D01A490334884200D14B
:10094000023CB44000993C430E00AC60164CCD43D1
:1009500027683E43D10301D43E002E4026606768DD
:10096000009E3E43910301D43E002E406660A7687E
:10097000009E3E43D10201D43E002E40A660E668B0
:10098000009F3743920201D42E403700E7600133C5
:1009900062E7C04600100240000001400004004829
:1009A00000080048000C004800040140002A01D063
:1009B000816170478162FCE7F0B5036885B005008E
:1009C000DB072FD42B689B0700D581E02B681B0722
:1009D00000D5BCE02B685B0700D5DFE02B68DB06A9
:1009E0001AD56A69B54C0423012A00D04BE1616B2A
:1009F00002260B436363636B1A436263FFF73AFC9F
:100A00000700636B334200D136E1F821626BAB69BA
:100A10008A43DB0013436363296A002900D059E14C
:100A2000002013E00C21A54C62680A40042A06D07D
:100A300063680B40082B0BD16368DB0308D5236880
:100A40009B03BFD56B68002BBCD1012005B0F0BD66
:100A50006B68012B13D1802322685B021343236050
:100A6000FFF708FC80260700B60223683342A9D1AD
:100A7000FFF700FCC01B6428F7D90320E6E7002B32
:100A800016D123688E4A80261340236023688D4A3E
:100A9000B60213402360FFF7EDFB070023683342E3
:100AA00000D18FE7FFF7E6FBC01B6428F6D9E4E727
:100AB000052B05D180232268DB0213432360CAE79C
:100AC00023687F4A1340236023687E4A1340C6E7A9
:100AD0000C227A4C6368134206D063681340082BDB
:100AE00010D16368DB030DD423689B0702D5EB6844
:100AF000012BAAD1F82122682B698A43DB0013431A
:100B0000236063E7EA680123002A0FD022680226E7
:100B100013432360FFF7AEFB070023683342E9D19C
:100B2000FFF7A8FBC01B0228F7D9A6E72268022618
:100B30009A432260FFF79EFB07002368334200D1EF
:100B400044E7FFF797FBC01B0228F6D995E7EA694F
:100B500001235A4C002A10D0626A022613436362B2
:100B6000FFF788FB0700636A334200D032E7FFF7E4
:100B700081FBC01B0228F6D97FE7626A02269A43EE
:100B80006262FFF777FB0700636A334200D121E717
:100B9000FFF770FBC01B0228F6D96EE78022002108
:100BA000464C5205E3690091134208D1E3691343AF
:100BB000E361E36913400393039B012300938027C0
:100BC000414E7F0033683B4206D0AB68012B13D106
:100BD000226A1343236230E033683B433360FFF7FC
:100BE00049FB019033683B42EFD1FFF743FB019B88
:100BF000C01A6428F6D940E70122002B14D1236AD9
:100C0000022793432362236A033293432362FFF74D
:100C100031FB0600236A3B4225D0FFF72BFB2B4B11
:100C2000801B9842F6D928E7052B0BD1216A013B9E
:100C30000B432362236A1A432262FFF71BFB02273E
:100C400006000DE0236A934304222362236A934340
:100C5000C0E7FFF70FFB1D4B801B984200D90CE744
:100C6000236A3B42F5D0009B012B00D0B6E6E36936
:100C7000174A1340E361B1E6FFF7FCFAC01B0228F4
:100C800000D8BEE6F9E6053203D1626B9A4362638F
:100C9000BBE6626B0226134301226363636B9343DB
:100CA0006363FFF7E7FA0700636B334200D1B3E6F3
:100CB000FFF7E0FAC01B0228F6D9DEE6001002407A
:100CC000FFFFFEFFFFFFFBFF0070004088130000E6
:100CD000FFFFFFEF0C22264C012063681340082B16
:100CE00000D1B3E62368234A1340236002292FD1A1
:100CF000FFF7C0FA80260700B6042368334221D1EB
:100D00000F22E36A9343EA6A1343E362696AAB6AB8
:100D100062680B43184980250A40134363608023AF
:100D200022685B0413432360FFF7A4FA0600AD04B6
:100D300023682B4200D073E6FFF79CFA801B022841
:100D4000F6D99AE6FFF796FAC01B0228D5D994E6A1
:100D5000FFF790FA80250600AD0423682B4200D1EE
:100D60005EE6FFF787FA801B0228F6D985E6C046C3
:100D700000100240FFFFFFFEFFFFC2FF70B5144CE2
:100D800088B010222100684600F08CFA210004ADE2
:100D900010221031280000F085FA0C220D4E7368E5
:100DA0001A40082A11D10F206A46990C0140545C60
:100DB000F26A0240A95CDB0305D50748FFF7A4F9F6
:100DC000604308B070BD0548FAE70348F9E7C0463C
:100DD000D01200080010024000127A0000093D0005
:100DE000F7B50122434C060023680F0013408B42E5
:100DF0001CD33268930723D4D30729D40123226854
:100E00001A40974267D333683B4C5B076AD4FFF7BD
:100E1000B5FF6368394A1B061B0FD35CD840384BBB
:100E200018600020FFF7FCF9002008E023689343D6
:100E30000B432360236813409942DAD00120FEBDA2
:100E4000F0202D494B688343B06803434B60D3E7E0
:100E5000294D72682B68012A1AD19B03EED5032114
:100E60006B688B4313436B60FFF704FA7368019060
:100E7000012B15D10C226B681340042BBED0FFF759
:100E8000F9F9019BC01A1F4B9842F3D90320D6E70A
:100E9000022A02D19B01E2D4D0E79B07DFD4CDE741
:100EA000022B12D00C226B681342A7D0FFF7E2F995
:100EB000019BC01A134B9842F4D9E7E7FFF7DAF920
:100EC000019BC01A0F4B9842E0D80C226B6813406C
:100ED000082BF3D192E722689A43226022681A42D3
:100EE000ACD190E76368084A1340F268134363602B
:100EF0008DE7C0460020024000100240F0120008BA
:100F00000000002088130000FFF8FFFF014B186865
:100F10007047C04600000020122310B590B0049323
:100F2000113B079309930F3308930A93002304A8F6
:100F30000C93FFF741FD011E00D0FEE7072301904F
:100F40000290039068460093FFF74AFF041E00D00A
:100F5000FEE7FFF7DBFFFA218900FFF7D5F8FFF77F
:100F600047FC0420FFF75EFC0120220021004042E4
:100F7000FFF70EFC10B010BD70B588B0FFF762F936
:100F8000FFF7CAFF80205B4B8002596900250143AF
:100F9000596180215A69C902024090200192019A48
:100FA0005A69C0050A435A615B6900220B400293EB
:100FB000FE21029BFFF7FAFC002202214E48FFF7B8
:100FC000F5FC90200126FE2303A9C0050393049697
:100FD00005950695FFF73AFC0223474803A90393BA
:100FE000049605950695FFF731FC444C444B2000D0
:100FF000236004236361C223FF336560A560E5605D
:101000002661A561E56125626562A362E5622563EB
:101010006663FFF7F5F9A84200D0FEE780235B0185
:101020000493802303905B0503A920000593FFF739
:1010300039FB002800D0FEE7012676422000FFF7AA
:1010400085FA31002000FFF7CBFA2000FFF726FBDE
:10105000042285B22A4000D0012202212648FFF74F
:10106000A5FC08222A4000D0012290208021C00542
:10107000FFF79CFC10222A4000D001229020402142
:10108000C005FFF793FC20212A000A4000D001226E
:101090009020C005FFF78AFC40222A4000D00122A0
:1010A00090200221C005FFF781FC80222A4000D059
:1010B000012290200421C005FFF778FC8022520015
:1010C0002A4000D0012290200821C005FFF76EFCC5
:1010D000802292002A4000D0012290201021C005D9
:1010E000FFF764FC2000FFF75DFA6420FFF7C8F803
:1010F000A4E7C0460010024000040048240000207D
:101100000024014007B50120114B99690143996101
:1011100080219A69490502400092009ADA690638EE
:101120000A43DA610022DB690B4001931100019B45
:10113000FFF72EFB0022022011004042FFF728FBA0
:101140000022012011004042FFF722FB07BDC046EC
:10115000001002407FB50D4B02689A4214D18020E6
:101160000B4A8000916901439161936901A9034091
:101170000093009B012390200193023302930023EC
:10118000C0050393FFF762FB07B000BD00240140D8
:10119000001002407047FEE77047704710B5FFF738
:1011A00061F8FFF74EFB10BD0121114B11481A6881
:1011B0000A431A605A6802405A601A680E48024090
:1011C0001A601A680D4802401A605A680C480240BA
:1011D0000F205A60DA6A8243DA621A6B09480240C9
:1011E0001A635A6B8A435A6300229A607047C0465A
:1011F000001002400CB8FF08FFFFF6FEFFFFFBFFE8
:10120000FFFFC0FFECFEFFFF0D4885460D480E496D
:101210000E4A002302E0D458C4500433C4188C4250
:10122000F9D30B4A0B4C002301E013600432A242B5
:10123000FBD3FFF7B9FF00F011F8FFF79DFEFEE7C3
:101240000010002000000020040000200813000807
:101250000400002070000020FEE7000070B50026AA
:101260000C4D0D4C641BA410A64209D1002600F0C1
:1012700023F80A4D0A4C641BA410A64205D170BD88
:10128000B300EB5898470136EEE7B300EB589847A8
:101290000136F2E7001300080013000800130008ED
:1012A00004130008002310B59A4200D110BDCC5C95
:1012B000C4540133F8E70000F8B5C046F8BC08BCD8
:1012C0009E467047F8B5C046F8BC08BC9E467047BD
:1012D00002030405060708090A0B0C0D0E0F101077
:1012E0000102030405060708090A0B0C0D0E0F1076
:1012F00000000000000000000102030406070809C6
:04130000E9000008F8
:04130400C10000081C
:0413080000127A0055
:0400000508001209D4
:00000001FF
